:05033700012100C100DE
:1002FC00D3EF9400EE940040147D6E7C00ED1D70E5
:0D030C00011CED4C70F7EF1F70E61E80E342
:0103190022C1
:1002D600758901758C3C758AB0D2AFD2A9D28CD201
:1002E60088C2A81202AB20000812024F12027E80BA
:0602F600F512027E80F00B
:03000B0002013DB2
:10013D00C0E0C0F0C083C082C0D075D000C000C088
:10014D0001C002C003C004C005C006C007758C3CC9
:10015D00758AB020000F0521E521C3941440067562
:10016D00210012000ED007D006D005D004D003D048
:10017D0002D001D000D0D0D082D083D0F0D0E032E8
:0300030002018D6A
:10018D00C0E0C0F0C083C082C0D075D000C000C038
:10019D0001C002C003C004C005C006C0071202ABF7
:1001AD0020B20512027E80F8C2A8D28CC289D00777
:1001BD00D006D005D004D003D002D001D000D0D0CD
:0901CD00D082D083D0F0D0E032E2
:1002AB00752205E4F523F52CFFEFC395225014C3FB
:1002BB0074049FFE742D2FF8A606744D2FF8E4F6E8
:0B02CB000F80E6C200E4F5210201D61E
:10024F0020B009E52364016003E4F52C20B107E534
:10025F00236003752C0120B209E523640360037545
:0F026F002C0220B309E52364026003752C0322DF
:10000E00852C23852D08854D09E52314600E14607B
:10001E000F1460102403700E0508800A1508800660
:10002E00150980020509C3E508648094804039D320
:10003E00E508648094875030C3E50964809480405D
:10004E0027D3E509648094874002801CE4F50AE515
:10005E000AC395225019742D250AF8E6B5080C74BA
:10006E004D250AF8E6B5090302021F050A80E08550
:10007E00220AE50AD394004020742C250AF8E6FFE4
:10008E00742D250AF8A607744C250AF8E6FF744D60
:10009E00250AF8A607150A80D985082D85094D125F
:0200AE0001D679
:0100B000222D
:1001D6007F087824E4F608DFFCE4FFEFC39522509D
:1001E60037742D2FF8E6FE744D2FF8E6FDEEC39416
:1001F600085022EDC39408501C74242DF8C000E664
:10020600FDC374079EFE7401A806088002C333D896
:08021600FC4DD000F60F80C37F
:01021E0022BD
:10021F00D200750B087423250BF876FFE4F50C124A
:10022F00027E7F027E001202FC050CE50CC3941EB9
:0F023F0040ED150BE50BD3940050DAC289D2A81D
:01024E00228D
:10031A00E4FEEF30E704D2B48002C2B4C2B6D2B669
:0C032A00EF25E0FF0EBE08EAC2B5D2B518
:0103360022A4
:10027E00E4FBC374079BFF7401A807088002C33315
:10028E00D8FCFF12031A74242BF8E6F4F5807F01D4
:0C029E007E001202FC7580FF0BBB08D62E
:0102AA002231
:030000000200B14A
:0C00B100787FE4F6D8FD75816C0200F841
:1000BD000202D6E493A3F8E493A34003F68001F281
:1000CD0008DFF48029E493A3F85407240CC8C33344
:1000DD00C4540F4420C8834004F456800146F6DF13
:1000ED00E4800B0102040810204080900337E47E69
:1000FD00019360BCA3FF543F30E509541FFEE49308
:10010D00A360010ECF54C025E060A840B8E493A3CE
:10011D00FAE493A3F8E493A3C8C582C8CAC583CAF9
:10012D00F0A3C8C582C8CAC583CADFE9DEE780BEB1
:01033C0000C0
:00000001FF
