:1005E4004E6577205077643A00496E7075742041E7
:1005F4006761696E3A0050776420697320636861AB
:100604006E67656421004572726F722100496E70D5
:1006140075743A20002A00436F7272656374210076
:0B0624004C6F636B6564203373210092
:0A06D000051A3132333400011F0017
:0A066D00C2A18F80D2A27F017E009F
:10067700D3EF9400EE940040147D6E7C00ED1D7066
:0D068700011CED4C70F7EF1F70E61E80E3C4
:010694002243
:04069500AB07AA06FF
:10069900900000C3E5829BE5839A5008B2B2120626
:0406A90073A380EFC8
:0106AD00222A
:0806DB00C2A012066DC2A222AA
:0606C2002FF8A60B7F2AB1
:0806C800D2A012066DC2A222AD
:1006AE007F381206DB7F0C1206DB7F061206DB7F1D
:0406BE00010206DB54
:06062F007BFFE4FD7F01EA
:100635008D168B178A188919EF7006E516248080A8
:1006450004E51624C0FF1206DBAB17AA18A9191278
:10065500000360130519E5197002051814F9120055
:0806650003FF1206C880E22227
:1003D1007590F0E59064F070030204A27F0A7E003C
:1003E100120677E59064F070030204A2AF90BFE0BB
:1003F10004E4FA8013BFD0047A01800CBFB0047A00
:10040100028005BF70027A0375900FAF90BF0E0492
:10041100E4FB8013BF0D047B01800CBF0B047B0246
:100421008005BF07027B03E590B40FFBEA7006EB82
:1004310070037F3722EA7006BB01037F3822EA701E
:1004410006BB02037F3922BA0106EB70037F342217
:10045100BA0106BB01037F3522BA0106BB02037F45
:100461003622BA0106BB03037F2A22BA0206EB70C9
:10047100037F3122BA0206BB01037F3222BA020690
:10048100BB02037F3322BA0306EB70037F4322BA18
:100491000306BB01037F3022BA0306BB02037F566A
:0304A100227FFFB8
:0104A4002235
:1004A500E4F50A7F011206DB7BFF7A0579E4E4FDBA
:1004B500FF120635E50AC39404501E1203D18F0BB3
:1004C500E50BC3943040EDE50BD3943950E6AF0A04
:1004D500050A740C1206C280DBE4F5101203D1BFC5
:1004E50056FA7F011206DB7BFF7A0579EDE4FDFF05
:1004F500120635E4F50AE50AC39404501E1203D129
:100505008F0BE50BC3943040EDE50BD3943950E6E2
:10051500AF0A050A74111206C280DBE4F515780CE2
:100525007C00FDFB7A00791112019AEF7015781A9B
:100535007C00FDFB7A00790C1202837BFF7A05793A
:10054500FA80067BFF7A06790A1206317FD07E078C
:0305550002067724
:1002CC00E4F5081206AED2B0D2B1C2B27F0112066A
:1002DC00DB7BFF7A067911E4FDFF120635E4F508A5
:1002EC00FE7F05FDFB7A0079201202A0E508C3947D
:1002FC000450621203D18F09E509C394304023E501
:10030C0009D39439501CAF08050874202FF8A6099E
:10031C00E5082407FD7BFF7A067919E4FF12063500
:10032C0080CAE509B44320E508D394004019E508D8
:10033C002487FF1206DB7F201206C81508E5082467
:10034C0087FF1206DB80A5E509642A709F1204A5BD
:10035C007508098097E508640460030202D812034B
:10036C00D1BF56FA78207C007D007B007A00791A88
:10037C0012019AEF701D7BFF7A06791BFD7F01122B
:10038C000635C2B07FE87E03120677D2B0E4F51FC3
:10039C000202D87A06790A12062FC2B17FE87E03D0
:1003AC00120695D2B1051FE51FC394035003020238
:1003BC00D87A06792412062F7FB87E0B120695E4A4
:0503CC00F51F0202D83C
:030000000205589E
:0C055800787FE4F6D8FD75812402059F31
:10000300BB010689828A83E0225002E722BBFE02FB
:09001300E32289828A83E493222E
:10001C00E3F5F009E208B5F06D606B80F3E3F5F001
:10002C0009E608B5F060605E80F387F009E608B574
:10003C00F054605280F487F009E208B5F04860464D
:10004C0080F488828C8387F009E0A3B5F0386036A1
:10005C0080F488828C8387F009E493A3B5F0276041
:10006C002580F388828C83E3F5F009E0A3B5F016C4
:10007C00601480F388828C83E3F5F009E493A3B5D4
:10008C00F004600280F2020147808580E7808E8058
:10009C00D2803C8015806C807E809B80B5808B806C
:1000AC00A1804F8070803A02015389828A83ECFAD6
:1000BC00E493F5F0A3C8C582C8CCC583CCE493A364
:1000CC00C8C582C8CCC583CCB5F070606E80E189A0
:1000DC00828A83E493F5F0A3E208B5F05E605C805D
:1000EC00F289828A83E0F5F0A3E608B5F04D604B07
:1000FC0080F389828A83E0F5F0A3E208B5F03C60D6
:10010C003A80F389828A83E493F5F0A3E608B5F08C
:10011C002A602880F2805389828A83ECFAE493F572
:10012C00F0A3C8C582C8CCC583CCE0A3C8C582C81F
:10013C00CCC583CCB5F004600280E27FFFB5F00241
:10014C000F2240027F012289828A83ECFAE0F5F0CB
:10015C00A3C8C582C8CCC583CCE0A3C8C582C8CC13
:10016C00C583CCB5F0D560D380E389828A83ECFA61
:10017C00E0F5F0A3C8C582C8CCC583CCE493A3C872
:10018C00C582C8CCC583CCB5F0B160AF80E288F035
:10019C00ED2402B4040050A3F582EB2402B4040055
:0B01AC00509923234582239000957397
:1001B700E709F60870FA8046E709F20870FA803E08
:1001C70088828C83E709F0A370FA807EE309F6083A
:1001D70070FA8076E309F20870FA806E88828C8361
:1001E700E309F0A370FA806289828A83E0A3F608A4
:1001F70070FA805689828A83E0A3F20870FA804AEF
:1002070080D280FA80C680D4806580F280318010E9
:1002170080A680EA809A80A880DA80E280CA80314E
:1002270089828A83ECFAE493A3C8C582C8CCC583C4
:10023700CCF0A3C8C582C8CCC583CC70E9800D8932
:10024700828A83E493A3F60870F9ECFAA9F0EDFB30
:100257002289828A83ECFAE0A3C8C582C8CCC58309
:10026700CCF0A3C8C582C8CCC583CC70EA80DD8931
:10027700828A83E493A3F20870F980CE88F0ED2494
:1002870002B4040050C4F582EB2402B4040050BA4F
:0902970023234582239002077322
:1002A000EF4E6012EF60010EEDBB010B89828A8375
:1002B000F0A3DFFCDEFA2289F05007F709DFFCA982
:0C02C000F022BBFEFCF309DFFCA9F022D9
:100564000202CCE493A3F8E493A34003F68001F2DF
:1005740008DFF48029E493A3F85407240CC8C33398
:10058400C4540F4420C8834004F456800146F6DF67
:10059400E4800B01020408102040809006D0E47E21
:1005A400019360BCA3FF543F30E509541FFEE4935C
:1005B400A360010ECF54C025E060A840B8E493A323
:1005C400FAE493A3F8E493A3C8C582C8CAC583CA4E
:1005D400F0A3C8C582C8CAC583CADFE9DEE780BE06
:0106DA00001F
:00000001FF
