:10010E000A0CC0F9A4B0999282D880900408010814
:02011E000905D1
:1000E3007D787C00E4FBFAC3EB9FEE6480F8EA645E
:1000F30080985016900000C3E5829DE5839C5003D1
:0A010300A380F40BBB00010A80DDAD
:01010D0022CF
:10008F00E4F516F517C2A0C2A1C2A2C2A374082537
:10009F0017F8E6240CF8E6F580E516701DE5171441
:1000AF00600E14600F1460102403700ED2A0800A2B
:1000BF00D2A18006D2A28002D2A37F0A7E001200B4
:1000CF00E30517E51770020516C39404E5169400AF
:0400DF0040B380ACFE
:03000000020003F8
:0C000300787FE4F6D8FD75811702004AF2
:10000F0002008FE493A3F8E493A34003F68001F278
:10001F0008DFF48029E493A3F85407240CC8C333F2
:10002F00C4540F4420C8834004F456800146F6DFC1
:10003F00E4800B010204081020408090010EE47E42
:10004F00019360BCA3FF543F30E509541FFEE493B6
:10005F00A360010ECF54C025E060A840B8E493A37D
:10006F00FAE493A3F8E493A3C8C582C8CAC583CAA8
:10007F00F0A3C8C582C8CAC583CADFE9DEE780BE60
:0101200000DE
:00000001FF
