:100065007D787C00E4FBFAC3EB9FEE6480F8EA64DC
:1000750080985016900000C3E5829DE5839C50034F
:0A008500A380F40BBB00010A80DD2C
:01008F00224E
:10000300EF64014E700475A00622EF64024E700483
:1000130075A05B22EF64034E700475A04F22EF645A
:10002300044E700475A06622EF64054E700475A03B
:100033006D22EF64064E700475A07D22EF64074EB7
:10004300700475A00722EF64084E700475A07F2228
:10005300EF64094E700475A0EF22EF4E700375A094
:020063003F223A
:1000900075B0017F017E00120003E4F5B07F107E91
:0600A0002712006580EA52
:030000000200A655
:0C00A600787FE4F6D8FD75810702009019
:00000001FF
