:09009B007E001200037FE87E03E1
:1000A4007D787C00E4FBFAC3EB9FEE6480F8EA649D
:1000B40080985016900000C3E5829DE5839C500310
:0A00C400A380F40BBB00010A80DDED
:0100CE00220F
:10000300EF64014E700475A00622EF64024E700483
:1000130075A05B22EF64034E700475A04F22EF645A
:10002300044E700475A06622EF64054E700475A03B
:100033006D22EF64064E700475A07D22EF64074EB7
:10004300700475A00722EF64084E700475A07F2228
:10005300EF64094E700475A0EF22EF4E700375A094
:020063003F223A
:100065007F0112009B7F0212009B7F0312009B7F82
:100075000412009B7F0512009B7F0612009B7F07E1
:1000850012009B7F0812009B7F0912009BE4FFFE74
:0600950012009D0200654F
:030000000200CF2C
:0C00CF00787FE4F6D8FD7581070200651B
:00000001FF
